{
  "_format": "hh-sol-artifact-1",
  "contractName": "ExperienceLetter",
  "sourceName": "contracts/ExperienceLetter.sol",
  "abi": [
    {
      "inputs": [],
      "stateMutability": "nonpayable",
      "type": "constructor"
    },
    {
      "anonymous": false,
      "inputs": [
        {
          "indexed": true,
          "internalType": "address",
          "name": "owner",
          "type": "address"
        },
        {
          "indexed": true,
          "internalType": "address",
          "name": "approved",
          "type": "address"
        },
        {
          "indexed": true,
          "internalType": "uint256",
          "name": "tokenId",
          "type": "uint256"
        }
      ],
      "name": "Approval",
      "type": "event"
    },
    {
      "anonymous": false,
      "inputs": [
        {
          "indexed": true,
          "internalType": "address",
          "name": "owner",
          "type": "address"
        },
        {
          "indexed": true,
          "internalType": "address",
          "name": "operator",
          "type": "address"
        },
        {
          "indexed": false,
          "internalType": "bool",
          "name": "approved",
          "type": "bool"
        }
      ],
      "name": "ApprovalForAll",
      "type": "event"
    },
    {
      "anonymous": false,
      "inputs": [
        {
          "indexed": false,
          "internalType": "uint256",
          "name": "_fromTokenId",
          "type": "uint256"
        },
        {
          "indexed": false,
          "internalType": "uint256",
          "name": "_toTokenId",
          "type": "uint256"
        }
      ],
      "name": "BatchMetadataUpdate",
      "type": "event"
    },
    {
      "anonymous": false,
      "inputs": [
        {
          "indexed": false,
          "internalType": "uint256",
          "name": "_tokenId",
          "type": "uint256"
        }
      ],
      "name": "MetadataUpdate",
      "type": "event"
    },
    {
      "anonymous": false,
      "inputs": [
        {
          "indexed": true,
          "internalType": "address",
          "name": "previousOwner",
          "type": "address"
        },
        {
          "indexed": true,
          "internalType": "address",
          "name": "newOwner",
          "type": "address"
        }
      ],
      "name": "OwnershipTransferred",
      "type": "event"
    },
    {
      "anonymous": false,
      "inputs": [
        {
          "indexed": true,
          "internalType": "address",
          "name": "from",
          "type": "address"
        },
        {
          "indexed": true,
          "internalType": "address",
          "name": "to",
          "type": "address"
        },
        {
          "indexed": true,
          "internalType": "uint256",
          "name": "tokenId",
          "type": "uint256"
        }
      ],
      "name": "Transfer",
      "type": "event"
    },
    {
      "inputs": [
        {
          "internalType": "address",
          "name": "to",
          "type": "address"
        },
        {
          "internalType": "uint256",
          "name": "tokenId",
          "type": "uint256"
        }
      ],
      "name": "approve",
      "outputs": [],
      "stateMutability": "nonpayable",
      "type": "function"
    },
    {
      "inputs": [
        {
          "internalType": "address",
          "name": "owner",
          "type": "address"
        }
      ],
      "name": "balanceOf",
      "outputs": [
        {
          "internalType": "uint256",
          "name": "",
          "type": "uint256"
        }
      ],
      "stateMutability": "view",
      "type": "function"
    },
    {
      "inputs": [
        {
          "internalType": "uint256",
          "name": "tokenId",
          "type": "uint256"
        }
      ],
      "name": "getApproved",
      "outputs": [
        {
          "internalType": "address",
          "name": "",
          "type": "address"
        }
      ],
      "stateMutability": "view",
      "type": "function"
    },
    {
      "inputs": [
        {
          "internalType": "address",
          "name": "owner",
          "type": "address"
        },
        {
          "internalType": "address",
          "name": "operator",
          "type": "address"
        }
      ],
      "name": "isApprovedForAll",
      "outputs": [
        {
          "internalType": "bool",
          "name": "",
          "type": "bool"
        }
      ],
      "stateMutability": "view",
      "type": "function"
    },
    {
      "inputs": [],
      "name": "name",
      "outputs": [
        {
          "internalType": "string",
          "name": "",
          "type": "string"
        }
      ],
      "stateMutability": "view",
      "type": "function"
    },
    {
      "inputs": [],
      "name": "owner",
      "outputs": [
        {
          "internalType": "address",
          "name": "",
          "type": "address"
        }
      ],
      "stateMutability": "view",
      "type": "function"
    },
    {
      "inputs": [
        {
          "internalType": "uint256",
          "name": "tokenId",
          "type": "uint256"
        }
      ],
      "name": "ownerOf",
      "outputs": [
        {
          "internalType": "address",
          "name": "",
          "type": "address"
        }
      ],
      "stateMutability": "view",
      "type": "function"
    },
    {
      "inputs": [],
      "name": "renounceOwnership",
      "outputs": [],
      "stateMutability": "nonpayable",
      "type": "function"
    },
    {
      "inputs": [
        {
          "internalType": "address",
          "name": "to",
          "type": "address"
        },
        {
          "internalType": "uint256",
          "name": "tokenId",
          "type": "uint256"
        },
        {
          "internalType": "string",
          "name": "uri",
          "type": "string"
        }
      ],
      "name": "safeMint",
      "outputs": [],
      "stateMutability": "nonpayable",
      "type": "function"
    },
    {
      "inputs": [
        {
          "internalType": "address",
          "name": "from",
          "type": "address"
        },
        {
          "internalType": "address",
          "name": "to",
          "type": "address"
        },
        {
          "internalType": "uint256",
          "name": "tokenId",
          "type": "uint256"
        }
      ],
      "name": "safeTransferFrom",
      "outputs": [],
      "stateMutability": "nonpayable",
      "type": "function"
    },
    {
      "inputs": [
        {
          "internalType": "address",
          "name": "from",
          "type": "address"
        },
        {
          "internalType": "address",
          "name": "to",
          "type": "address"
        },
        {
          "internalType": "uint256",
          "name": "tokenId",
          "type": "uint256"
        },
        {
          "internalType": "bytes",
          "name": "data",
          "type": "bytes"
        }
      ],
      "name": "safeTransferFrom",
      "outputs": [],
      "stateMutability": "nonpayable",
      "type": "function"
    },
    {
      "inputs": [
        {
          "internalType": "address",
          "name": "operator",
          "type": "address"
        },
        {
          "internalType": "bool",
          "name": "approved",
          "type": "bool"
        }
      ],
      "name": "setApprovalForAll",
      "outputs": [],
      "stateMutability": "nonpayable",
      "type": "function"
    },
    {
      "inputs": [
        {
          "internalType": "bytes4",
          "name": "interfaceId",
          "type": "bytes4"
        }
      ],
      "name": "supportsInterface",
      "outputs": [
        {
          "internalType": "bool",
          "name": "",
          "type": "bool"
        }
      ],
      "stateMutability": "view",
      "type": "function"
    },
    {
      "inputs": [],
      "name": "symbol",
      "outputs": [
        {
          "internalType": "string",
          "name": "",
          "type": "string"
        }
      ],
      "stateMutability": "view",
      "type": "function"
    },
    {
      "inputs": [
        {
          "internalType": "uint256",
          "name": "tokenId",
          "type": "uint256"
        }
      ],
      "name": "tokenURI",
      "outputs": [
        {
          "internalType": "string",
          "name": "",
          "type": "string"
        }
      ],
      "stateMutability": "view",
      "type": "function"
    },
    {
      "inputs": [
        {
          "internalType": "address",
          "name": "from",
          "type": "address"
        },
        {
          "internalType": "address",
          "name": "to",
          "type": "address"
        },
        {
          "internalType": "uint256",
          "name": "tokenId",
          "type": "uint256"
        }
      ],
      "name": "transferFrom",
      "outputs": [],
      "stateMutability": "nonpayable",
      "type": "function"
    },
    {
      "inputs": [
        {
          "internalType": "address",
          "name": "newOwner",
          "type": "address"
        }
      ],
      "name": "transferOwnership",
      "outputs": [],
      "stateMutability": "nonpayable",
      "type": "function"
    }
  ],
  "bytecode": "0x60806040523480156200001157600080fd5b506040518060400160405280601081526020017f457870657269656e63654c6574746572000000000000000000000000000000008152506040518060400160405280600381526020017f454c54000000000000000000000000000000000000000000000000000000000081525081600090816200008f919062000412565b508060019081620000a1919062000412565b505050620000c4620000b8620000ca60201b60201c565b620000d260201b60201c565b620004f9565b600033905090565b6000600760009054906101000a900473ffffffffffffffffffffffffffffffffffffffff16905081600760006101000a81548173ffffffffffffffffffffffffffffffffffffffff021916908373ffffffffffffffffffffffffffffffffffffffff1602179055508173ffffffffffffffffffffffffffffffffffffffff168173ffffffffffffffffffffffffffffffffffffffff167f8be0079c531659141344cd1fd0a4f28419497f9722a3daafe3b4186f6b6457e060405160405180910390a35050565b600081519050919050565b7f4e487b7100000000000000000000000000000000000000000000000000000000600052604160045260246000fd5b7f4e487b7100000000000000000000000000000000000000000000000000000000600052602260045260246000fd5b600060028204905060018216806200021a57607f821691505b60208210810362000230576200022f620001d2565b5b50919050565b60008190508160005260206000209050919050565b60006020601f8301049050919050565b600082821b905092915050565b6000600883026200029a7fffffffffffffffffffffffffffffffffffffffffffffffffffffffffffffffff826200025b565b620002a686836200025b565b95508019841693508086168417925050509392505050565b6000819050919050565b6000819050919050565b6000620002f3620002ed620002e784620002be565b620002c8565b620002be565b9050919050565b6000819050919050565b6200030f83620002d2565b620003276200031e82620002fa565b84845462000268565b825550505050565b600090565b6200033e6200032f565b6200034b81848462000304565b505050565b5b8181101562000373576200036760008262000334565b60018101905062000351565b5050565b601f821115620003c2576200038c8162000236565b62000397846200024b565b81016020851015620003a7578190505b620003bf620003b6856200024b565b83018262000350565b50505b505050565b600082821c905092915050565b6000620003e760001984600802620003c7565b1980831691505092915050565b6000620004028383620003d4565b9150826002028217905092915050565b6200041d8262000198565b67ffffffffffffffff811115620004395762000438620001a3565b5b62000445825462000201565b6200045282828562000377565b600060209050601f8311600181146200048a576000841562000475578287015190505b620004818582620003f4565b865550620004f1565b601f1984166200049a8662000236565b60005b82811015620004c4578489015182556001820191506020850194506020810190506200049d565b86831015620004e45784890151620004e0601f891682620003d4565b8355505b6001600288020188555050505b505050505050565b612ea980620005096000396000f3fe608060405234801561001057600080fd5b506004361061010b5760003560e01c8063715018a6116100a2578063b88d4fde11610071578063b88d4fde146102a4578063c87b56dd146102c0578063cd279c7c146102f0578063e985e9c51461030c578063f2fde38b1461033c5761010b565b8063715018a6146102425780638da5cb5b1461024c57806395d89b411461026a578063a22cb465146102885761010b565b806323b872dd116100de57806323b872dd146101aa57806342842e0e146101c65780636352211e146101e257806370a08231146102125761010b565b806301ffc9a71461011057806306fdde0314610140578063081812fc1461015e578063095ea7b31461018e575b600080fd5b61012a60048036038101906101259190611c87565b610358565b6040516101379190611ccf565b60405180910390f35b61014861036a565b6040516101559190611d7a565b60405180910390f35b61017860048036038101906101739190611dd2565b6103fc565b6040516101859190611e40565b60405180910390f35b6101a860048036038101906101a39190611e87565b610442565b005b6101c460048036038101906101bf9190611ec7565b610559565b005b6101e060048036038101906101db9190611ec7565b6105b9565b005b6101fc60048036038101906101f79190611dd2565b6105d9565b6040516102099190611e40565b60405180910390f35b61022c60048036038101906102279190611f1a565b61065f565b6040516102399190611f56565b60405180910390f35b61024a610716565b005b61025461072a565b6040516102619190611e40565b60405180910390f35b610272610754565b60405161027f9190611d7a565b60405180910390f35b6102a2600480360381019061029d9190611f9d565b6107e6565b005b6102be60048036038101906102b99190612112565b6107fc565b005b6102da60048036038101906102d59190611dd2565b61085e565b6040516102e79190611d7a565b60405180910390f35b61030a60048036038101906103059190612236565b610870565b005b610326600480360381019061032191906122a5565b610891565b6040516103339190611ccf565b60405180910390f35b61035660048036038101906103519190611f1a565b610925565b005b6000610363826109a8565b9050919050565b60606000805461037990612314565b80601f01602080910402602001604051908101604052809291908181526020018280546103a590612314565b80156103f25780601f106103c7576101008083540402835291602001916103f2565b820191906000526020600020905b8154815290600101906020018083116103d557829003601f168201915b5050505050905090565b600061040782610a09565b6004600083815260200190815260200160002060009054906101000a900473ffffffffffffffffffffffffffffffffffffffff169050919050565b600061044d826105d9565b90508073ffffffffffffffffffffffffffffffffffffffff168373ffffffffffffffffffffffffffffffffffffffff16036104bd576040517f08c379a00000000000000000000000000000000000000000000000000000000081526004016104b4906123b7565b60405180910390fd5b8073ffffffffffffffffffffffffffffffffffffffff166104dc610a54565b73ffffffffffffffffffffffffffffffffffffffff16148061050b575061050a81610505610a54565b610891565b5b61054a576040517f08c379a000000000000000000000000000000000000000000000000000000000815260040161054190612449565b60405180910390fd5b6105548383610a5c565b505050565b61056a610564610a54565b82610b15565b6105a9576040517f08c379a00000000000000000000000000000000000000000000000000000000081526004016105a0906124db565b60405180910390fd5b6105b4838383610baa565b505050565b6105d4838383604051806020016040528060008152506107fc565b505050565b6000806105e583610ea3565b9050600073ffffffffffffffffffffffffffffffffffffffff168173ffffffffffffffffffffffffffffffffffffffff1603610656576040517f08c379a000000000000000000000000000000000000000000000000000000000815260040161064d90612547565b60405180910390fd5b80915050919050565b60008073ffffffffffffffffffffffffffffffffffffffff168273ffffffffffffffffffffffffffffffffffffffff16036106cf576040517f08c379a00000000000000000000000000000000000000000000000000000000081526004016106c6906125d9565b60405180910390fd5b600360008373ffffffffffffffffffffffffffffffffffffffff1673ffffffffffffffffffffffffffffffffffffffff168152602001908152602001600020549050919050565b61071e610ee0565b6107286000610f5e565b565b6000600760009054906101000a900473ffffffffffffffffffffffffffffffffffffffff16905090565b60606001805461076390612314565b80601f016020809104026020016040519081016040528092919081815260200182805461078f90612314565b80156107dc5780601f106107b1576101008083540402835291602001916107dc565b820191906000526020600020905b8154815290600101906020018083116107bf57829003601f168201915b5050505050905090565b6107f86107f1610a54565b8383611024565b5050565b61080d610807610a54565b83610b15565b61084c576040517f08c379a0000000000000000000000000000000000000000000000000000000008152600401610843906124db565b60405180910390fd5b61085884848484611190565b50505050565b6060610869826111ec565b9050919050565b610878610ee0565b61088283836112fe565b61088c828261131c565b505050565b6000600560008473ffffffffffffffffffffffffffffffffffffffff1673ffffffffffffffffffffffffffffffffffffffff16815260200190815260200160002060008373ffffffffffffffffffffffffffffffffffffffff1673ffffffffffffffffffffffffffffffffffffffff16815260200190815260200160002060009054906101000a900460ff16905092915050565b61092d610ee0565b600073ffffffffffffffffffffffffffffffffffffffff168173ffffffffffffffffffffffffffffffffffffffff160361099c576040517f08c379a00000000000000000000000000000000000000000000000000000000081526004016109939061266b565b60405180910390fd5b6109a581610f5e565b50565b6000634906490660e01b7bffffffffffffffffffffffffffffffffffffffffffffffffffffffff1916827bffffffffffffffffffffffffffffffffffffffffffffffffffffffff19161480610a025750610a01826113c0565b5b9050919050565b610a12816114a2565b610a51576040517f08c379a0000000000000000000000000000000000000000000000000000000008152600401610a4890612547565b60405180910390fd5b50565b600033905090565b816004600083815260200190815260200160002060006101000a81548173ffffffffffffffffffffffffffffffffffffffff021916908373ffffffffffffffffffffffffffffffffffffffff160217905550808273ffffffffffffffffffffffffffffffffffffffff16610acf836105d9565b73ffffffffffffffffffffffffffffffffffffffff167f8c5be1e5ebec7d5bd14f71427d1e84f3dd0314c0f7b2291e5b200ac8c7c3b92560405160405180910390a45050565b600080610b21836105d9565b90508073ffffffffffffffffffffffffffffffffffffffff168473ffffffffffffffffffffffffffffffffffffffff161480610b635750610b628185610891565b5b80610ba157508373ffffffffffffffffffffffffffffffffffffffff16610b89846103fc565b73ffffffffffffffffffffffffffffffffffffffff16145b91505092915050565b8273ffffffffffffffffffffffffffffffffffffffff16610bca826105d9565b73ffffffffffffffffffffffffffffffffffffffff1614610c20576040517f08c379a0000000000000000000000000000000000000000000000000000000008152600401610c17906126fd565b60405180910390fd5b600073ffffffffffffffffffffffffffffffffffffffff168273ffffffffffffffffffffffffffffffffffffffff1603610c8f576040517f08c379a0000000000000000000000000000000000000000000000000000000008152600401610c869061278f565b60405180910390fd5b610c9c83838360016114e3565b8273ffffffffffffffffffffffffffffffffffffffff16610cbc826105d9565b73ffffffffffffffffffffffffffffffffffffffff1614610d12576040517f08c379a0000000000000000000000000000000000000000000000000000000008152600401610d09906126fd565b60405180910390fd5b6004600082815260200190815260200160002060006101000a81549073ffffffffffffffffffffffffffffffffffffffff02191690556001600360008573ffffffffffffffffffffffffffffffffffffffff1673ffffffffffffffffffffffffffffffffffffffff168152602001908152602001600020600082825403925050819055506001600360008473ffffffffffffffffffffffffffffffffffffffff1673ffffffffffffffffffffffffffffffffffffffff16815260200190815260200160002060008282540192505081905550816002600083815260200190815260200160002060006101000a81548173ffffffffffffffffffffffffffffffffffffffff021916908373ffffffffffffffffffffffffffffffffffffffff160217905550808273ffffffffffffffffffffffffffffffffffffffff168473ffffffffffffffffffffffffffffffffffffffff167fddf252ad1be2c89b69c2b068fc378daa952ba7f163c4a11628f55a4df523b3ef60405160405180910390a4610e9e83838360016114e9565b505050565b60006002600083815260200190815260200160002060009054906101000a900473ffffffffffffffffffffffffffffffffffffffff169050919050565b610ee8610a54565b73ffffffffffffffffffffffffffffffffffffffff16610f0661072a565b73ffffffffffffffffffffffffffffffffffffffff1614610f5c576040517f08c379a0000000000000000000000000000000000000000000000000000000008152600401610f53906127fb565b60405180910390fd5b565b6000600760009054906101000a900473ffffffffffffffffffffffffffffffffffffffff16905081600760006101000a81548173ffffffffffffffffffffffffffffffffffffffff021916908373ffffffffffffffffffffffffffffffffffffffff1602179055508173ffffffffffffffffffffffffffffffffffffffff168173ffffffffffffffffffffffffffffffffffffffff167f8be0079c531659141344cd1fd0a4f28419497f9722a3daafe3b4186f6b6457e060405160405180910390a35050565b8173ffffffffffffffffffffffffffffffffffffffff168373ffffffffffffffffffffffffffffffffffffffff1603611092576040517f08c379a000000000000000000000000000000000000000000000000000000000815260040161108990612867565b60405180910390fd5b80600560008573ffffffffffffffffffffffffffffffffffffffff1673ffffffffffffffffffffffffffffffffffffffff16815260200190815260200160002060008473ffffffffffffffffffffffffffffffffffffffff1673ffffffffffffffffffffffffffffffffffffffff16815260200190815260200160002060006101000a81548160ff0219169083151502179055508173ffffffffffffffffffffffffffffffffffffffff168373ffffffffffffffffffffffffffffffffffffffff167f17307eab39ab6107e8899845ad3d59bd9653f200f220920489ca2b5937696c31836040516111839190611ccf565b60405180910390a3505050565b61119b848484610baa565b6111a7848484846114ef565b6111e6576040517f08c379a00000000000000000000000000000000000000000000000000000000081526004016111dd906128f9565b60405180910390fd5b50505050565b60606111f782610a09565b600060066000848152602001908152602001600020805461121790612314565b80601f016020809104026020016040519081016040528092919081815260200182805461124390612314565b80156112905780601f1061126557610100808354040283529160200191611290565b820191906000526020600020905b81548152906001019060200180831161127357829003601f168201915b5050505050905060006112a1611676565b905060008151036112b65781925050506112f9565b6000825111156112eb5780826040516020016112d3929190612955565b604051602081830303815290604052925050506112f9565b6112f48461168d565b925050505b919050565b6113188282604051806020016040528060008152506116f5565b5050565b611325826114a2565b611364576040517f08c379a000000000000000000000000000000000000000000000000000000000815260040161135b906129eb565b60405180910390fd5b806006600084815260200190815260200160002090816113849190612bb7565b507ff8e1a15aba9398e019f0b49df1a4fde98ee17ae345cb5f6b5e2c27f5033e8ce7826040516113b49190611f56565b60405180910390a15050565b60007f80ac58cd000000000000000000000000000000000000000000000000000000007bffffffffffffffffffffffffffffffffffffffffffffffffffffffff1916827bffffffffffffffffffffffffffffffffffffffffffffffffffffffff1916148061148b57507f5b5e139f000000000000000000000000000000000000000000000000000000007bffffffffffffffffffffffffffffffffffffffffffffffffffffffff1916827bffffffffffffffffffffffffffffffffffffffffffffffffffffffff1916145b8061149b575061149a82611750565b5b9050919050565b60008073ffffffffffffffffffffffffffffffffffffffff166114c483610ea3565b73ffffffffffffffffffffffffffffffffffffffff1614159050919050565b50505050565b50505050565b60006115108473ffffffffffffffffffffffffffffffffffffffff166117ba565b15611669578373ffffffffffffffffffffffffffffffffffffffff1663150b7a02611539610a54565b8786866040518563ffffffff1660e01b815260040161155b9493929190612cde565b6020604051808303816000875af192505050801561159757506040513d601f19601f820116820180604052508101906115949190612d3f565b60015b611619573d80600081146115c7576040519150601f19603f3d011682016040523d82523d6000602084013e6115cc565b606091505b506000815103611611576040517f08c379a0000000000000000000000000000000000000000000000000000000008152600401611608906128f9565b60405180910390fd5b805181602001fd5b63150b7a0260e01b7bffffffffffffffffffffffffffffffffffffffffffffffffffffffff1916817bffffffffffffffffffffffffffffffffffffffffffffffffffffffff19161491505061166e565b600190505b949350505050565b606060405180602001604052806000815250905090565b606061169882610a09565b60006116a2611676565b905060008151116116c257604051806020016040528060008152506116ed565b806116cc846117dd565b6040516020016116dd929190612955565b6040516020818303038152906040525b915050919050565b6116ff83836118ab565b61170c60008484846114ef565b61174b576040517f08c379a0000000000000000000000000000000000000000000000000000000008152600401611742906128f9565b60405180910390fd5b505050565b60007f01ffc9a7000000000000000000000000000000000000000000000000000000007bffffffffffffffffffffffffffffffffffffffffffffffffffffffff1916827bffffffffffffffffffffffffffffffffffffffffffffffffffffffff1916149050919050565b6000808273ffffffffffffffffffffffffffffffffffffffff163b119050919050565b6060600060016117ec84611ac8565b01905060008167ffffffffffffffff81111561180b5761180a611fe7565b5b6040519080825280601f01601f19166020018201604052801561183d5781602001600182028036833780820191505090505b509050600082602001820190505b6001156118a0578080600190039150507f3031323334353637383961626364656600000000000000000000000000000000600a86061a8153600a858161189457611893612d6c565b5b0494506000850361184b575b819350505050919050565b600073ffffffffffffffffffffffffffffffffffffffff168273ffffffffffffffffffffffffffffffffffffffff160361191a576040517f08c379a000000000000000000000000000000000000000000000000000000000815260040161191190612de7565b60405180910390fd5b611923816114a2565b15611963576040517f08c379a000000000000000000000000000000000000000000000000000000000815260040161195a90612e53565b60405180910390fd5b6119716000838360016114e3565b61197a816114a2565b156119ba576040517f08c379a00000000000000000000000000000000000000000000000000000000081526004016119b190612e53565b60405180910390fd5b6001600360008473ffffffffffffffffffffffffffffffffffffffff1673ffffffffffffffffffffffffffffffffffffffff16815260200190815260200160002060008282540192505081905550816002600083815260200190815260200160002060006101000a81548173ffffffffffffffffffffffffffffffffffffffff021916908373ffffffffffffffffffffffffffffffffffffffff160217905550808273ffffffffffffffffffffffffffffffffffffffff16600073ffffffffffffffffffffffffffffffffffffffff167fddf252ad1be2c89b69c2b068fc378daa952ba7f163c4a11628f55a4df523b3ef60405160405180910390a4611ac46000838360016114e9565b5050565b600080600090507a184f03e93ff9f4daa797ed6e38ed64bf6a1f0100000000000000008310611b26577a184f03e93ff9f4daa797ed6e38ed64bf6a1f0100000000000000008381611b1c57611b1b612d6c565b5b0492506040810190505b6d04ee2d6d415b85acef81000000008310611b63576d04ee2d6d415b85acef81000000008381611b5957611b58612d6c565b5b0492506020810190505b662386f26fc100008310611b9257662386f26fc100008381611b8857611b87612d6c565b5b0492506010810190505b6305f5e1008310611bbb576305f5e1008381611bb157611bb0612d6c565b5b0492506008810190505b6127108310611be0576127108381611bd657611bd5612d6c565b5b0492506004810190505b60648310611c035760648381611bf957611bf8612d6c565b5b0492506002810190505b600a8310611c12576001810190505b80915050919050565b6000604051905090565b600080fd5b600080fd5b60007fffffffff0000000000000000000000000000000000000000000000000000000082169050919050565b611c6481611c2f565b8114611c6f57600080fd5b50565b600081359050611c8181611c5b565b92915050565b600060208284031215611c9d57611c9c611c25565b5b6000611cab84828501611c72565b91505092915050565b60008115159050919050565b611cc981611cb4565b82525050565b6000602082019050611ce46000830184611cc0565b92915050565b600081519050919050565b600082825260208201905092915050565b60005b83811015611d24578082015181840152602081019050611d09565b60008484015250505050565b6000601f19601f8301169050919050565b6000611d4c82611cea565b611d568185611cf5565b9350611d66818560208601611d06565b611d6f81611d30565b840191505092915050565b60006020820190508181036000830152611d948184611d41565b905092915050565b6000819050919050565b611daf81611d9c565b8114611dba57600080fd5b50565b600081359050611dcc81611da6565b92915050565b600060208284031215611de857611de7611c25565b5b6000611df684828501611dbd565b91505092915050565b600073ffffffffffffffffffffffffffffffffffffffff82169050919050565b6000611e2a82611dff565b9050919050565b611e3a81611e1f565b82525050565b6000602082019050611e556000830184611e31565b92915050565b611e6481611e1f565b8114611e6f57600080fd5b50565b600081359050611e8181611e5b565b92915050565b60008060408385031215611e9e57611e9d611c25565b5b6000611eac85828601611e72565b9250506020611ebd85828601611dbd565b9150509250929050565b600080600060608486031215611ee057611edf611c25565b5b6000611eee86828701611e72565b9350506020611eff86828701611e72565b9250506040611f1086828701611dbd565b9150509250925092565b600060208284031215611f3057611f2f611c25565b5b6000611f3e84828501611e72565b91505092915050565b611f5081611d9c565b82525050565b6000602082019050611f6b6000830184611f47565b92915050565b611f7a81611cb4565b8114611f8557600080fd5b50565b600081359050611f9781611f71565b92915050565b60008060408385031215611fb457611fb3611c25565b5b6000611fc285828601611e72565b9250506020611fd385828601611f88565b9150509250929050565b600080fd5b600080fd5b7f4e487b7100000000000000000000000000000000000000000000000000000000600052604160045260246000fd5b61201f82611d30565b810181811067ffffffffffffffff8211171561203e5761203d611fe7565b5b80604052505050565b6000612051611c1b565b905061205d8282612016565b919050565b600067ffffffffffffffff82111561207d5761207c611fe7565b5b61208682611d30565b9050602081019050919050565b82818337600083830152505050565b60006120b56120b084612062565b612047565b9050828152602081018484840111156120d1576120d0611fe2565b5b6120dc848285612093565b509392505050565b600082601f8301126120f9576120f8611fdd565b5b81356121098482602086016120a2565b91505092915050565b6000806000806080858703121561212c5761212b611c25565b5b600061213a87828801611e72565b945050602061214b87828801611e72565b935050604061215c87828801611dbd565b925050606085013567ffffffffffffffff81111561217d5761217c611c2a565b5b612189878288016120e4565b91505092959194509250565b600067ffffffffffffffff8211156121b0576121af611fe7565b5b6121b982611d30565b9050602081019050919050565b60006121d96121d484612195565b612047565b9050828152602081018484840111156121f5576121f4611fe2565b5b612200848285612093565b509392505050565b600082601f83011261221d5761221c611fdd565b5b813561222d8482602086016121c6565b91505092915050565b60008060006060848603121561224f5761224e611c25565b5b600061225d86828701611e72565b935050602061226e86828701611dbd565b925050604084013567ffffffffffffffff81111561228f5761228e611c2a565b5b61229b86828701612208565b9150509250925092565b600080604083850312156122bc576122bb611c25565b5b60006122ca85828601611e72565b92505060206122db85828601611e72565b9150509250929050565b7f4e487b7100000000000000000000000000000000000000000000000000000000600052602260045260246000fd5b6000600282049050600182168061232c57607f821691505b60208210810361233f5761233e6122e5565b5b50919050565b7f4552433732313a20617070726f76616c20746f2063757272656e74206f776e6560008201527f7200000000000000000000000000000000000000000000000000000000000000602082015250565b60006123a1602183611cf5565b91506123ac82612345565b604082019050919050565b600060208201905081810360008301526123d081612394565b9050919050565b7f4552433732313a20617070726f76652063616c6c6572206973206e6f7420746f60008201527f6b656e206f776e6572206f7220617070726f76656420666f7220616c6c000000602082015250565b6000612433603d83611cf5565b915061243e826123d7565b604082019050919050565b6000602082019050818103600083015261246281612426565b9050919050565b7f4552433732313a2063616c6c6572206973206e6f7420746f6b656e206f776e6560008201527f72206f7220617070726f76656400000000000000000000000000000000000000602082015250565b60006124c5602d83611cf5565b91506124d082612469565b604082019050919050565b600060208201905081810360008301526124f4816124b8565b9050919050565b7f4552433732313a20696e76616c696420746f6b656e2049440000000000000000600082015250565b6000612531601883611cf5565b915061253c826124fb565b602082019050919050565b6000602082019050818103600083015261256081612524565b9050919050565b7f4552433732313a2061646472657373207a65726f206973206e6f74206120766160008201527f6c6964206f776e65720000000000000000000000000000000000000000000000602082015250565b60006125c3602983611cf5565b91506125ce82612567565b604082019050919050565b600060208201905081810360008301526125f2816125b6565b9050919050565b7f4f776e61626c653a206e6577206f776e657220697320746865207a65726f206160008201527f6464726573730000000000000000000000000000000000000000000000000000602082015250565b6000612655602683611cf5565b9150612660826125f9565b604082019050919050565b6000602082019050818103600083015261268481612648565b9050919050565b7f4552433732313a207472616e736665722066726f6d20696e636f72726563742060008201527f6f776e6572000000000000000000000000000000000000000000000000000000602082015250565b60006126e7602583611cf5565b91506126f28261268b565b604082019050919050565b60006020820190508181036000830152612716816126da565b9050919050565b7f4552433732313a207472616e7366657220746f20746865207a65726f2061646460008201527f7265737300000000000000000000000000000000000000000000000000000000602082015250565b6000612779602483611cf5565b91506127848261271d565b604082019050919050565b600060208201905081810360008301526127a88161276c565b9050919050565b7f4f776e61626c653a2063616c6c6572206973206e6f7420746865206f776e6572600082015250565b60006127e5602083611cf5565b91506127f0826127af565b602082019050919050565b60006020820190508181036000830152612814816127d8565b9050919050565b7f4552433732313a20617070726f766520746f2063616c6c657200000000000000600082015250565b6000612851601983611cf5565b915061285c8261281b565b602082019050919050565b6000602082019050818103600083015261288081612844565b9050919050565b7f4552433732313a207472616e7366657220746f206e6f6e20455243373231526560008201527f63656976657220696d706c656d656e7465720000000000000000000000000000602082015250565b60006128e3603283611cf5565b91506128ee82612887565b604082019050919050565b60006020820190508181036000830152612912816128d6565b9050919050565b600081905092915050565b600061292f82611cea565b6129398185612919565b9350612949818560208601611d06565b80840191505092915050565b60006129618285612924565b915061296d8284612924565b91508190509392505050565b7f45524337323155524953746f726167653a2055524920736574206f66206e6f6e60008201527f6578697374656e7420746f6b656e000000000000000000000000000000000000602082015250565b60006129d5602e83611cf5565b91506129e082612979565b604082019050919050565b60006020820190508181036000830152612a04816129c8565b9050919050565b60008190508160005260206000209050919050565b60006020601f8301049050919050565b600082821b905092915050565b600060088302612a6d7fffffffffffffffffffffffffffffffffffffffffffffffffffffffffffffffff82612a30565b612a778683612a30565b95508019841693508086168417925050509392505050565b6000819050919050565b6000612ab4612aaf612aaa84611d9c565b612a8f565b611d9c565b9050919050565b6000819050919050565b612ace83612a99565b612ae2612ada82612abb565b848454612a3d565b825550505050565b600090565b612af7612aea565b612b02818484612ac5565b505050565b5b81811015612b2657612b1b600082612aef565b600181019050612b08565b5050565b601f821115612b6b57612b3c81612a0b565b612b4584612a20565b81016020851015612b54578190505b612b68612b6085612a20565b830182612b07565b50505b505050565b600082821c905092915050565b6000612b8e60001984600802612b70565b1980831691505092915050565b6000612ba78383612b7d565b9150826002028217905092915050565b612bc082611cea565b67ffffffffffffffff811115612bd957612bd8611fe7565b5b612be38254612314565b612bee828285612b2a565b600060209050601f831160018114612c215760008415612c0f578287015190505b612c198582612b9b565b865550612c81565b601f198416612c2f86612a0b565b60005b82811015612c5757848901518255600182019150602085019450602081019050612c32565b86831015612c745784890151612c70601f891682612b7d565b8355505b6001600288020188555050505b505050505050565b600081519050919050565b600082825260208201905092915050565b6000612cb082612c89565b612cba8185612c94565b9350612cca818560208601611d06565b612cd381611d30565b840191505092915050565b6000608082019050612cf36000830187611e31565b612d006020830186611e31565b612d0d6040830185611f47565b8181036060830152612d1f8184612ca5565b905095945050505050565b600081519050612d3981611c5b565b92915050565b600060208284031215612d5557612d54611c25565b5b6000612d6384828501612d2a565b91505092915050565b7f4e487b7100000000000000000000000000000000000000000000000000000000600052601260045260246000fd5b7f4552433732313a206d696e7420746f20746865207a65726f2061646472657373600082015250565b6000612dd1602083611cf5565b9150612ddc82612d9b565b602082019050919050565b60006020820190508181036000830152612e0081612dc4565b9050919050565b7f4552433732313a20746f6b656e20616c7265616479206d696e74656400000000600082015250565b6000612e3d601c83611cf5565b9150612e4882612e07565b602082019050919050565b60006020820190508181036000830152612e6c81612e30565b905091905056fea26469706673582212205a1e946a15c5d91fcee8a52987e3f364f6937d9549e505658e3771552eb8ac5d64736f6c63430008130033",
  "linkReferences": {},
  "deployedLinkReferences": {}
}